{
	"_format": "hh3-artifact-1",
	"contractName": "RedEnvelope",
	"sourceName": "contracts/RedEnvelope.sol",
	"abi": [
		{
			"anonymous": false,
			"inputs": [
				{
					"indexed": true,
					"internalType": "uint256",
					"name": "envelopeId",
					"type": "uint256"
				},
				{
					"indexed": true,
					"internalType": "address",
					"name": "claimer",
					"type": "address"
				},
				{
					"indexed": false,
					"internalType": "uint256",
					"name": "amount",
					"type": "uint256"
				},
				{
					"indexed": false,
					"internalType": "uint256",
					"name": "remainingCount",
					"type": "uint256"
				},
				{
					"indexed": false,
					"internalType": "uint256",
					"name": "remainingAmount",
					"type": "uint256"
				}
			],
			"name": "EnvelopeClaimed",
			"type": "event"
		},
		{
			"anonymous": false,
			"inputs": [
				{
					"indexed": true,
					"internalType": "uint256",
					"name": "envelopeId",
					"type": "uint256"
				},
				{
					"indexed": true,
					"internalType": "address",
					"name": "creator",
					"type": "address"
				},
				{
					"indexed": false,
					"internalType": "uint256",
					"name": "totalAmount",
					"type": "uint256"
				},
				{
					"indexed": false,
					"internalType": "uint256",
					"name": "totalCount",
					"type": "uint256"
				}
			],
			"name": "EnvelopeCompleted",
			"type": "event"
		},
		{
			"anonymous": false,
			"inputs": [
				{
					"indexed": true,
					"internalType": "uint256",
					"name": "envelopeId",
					"type": "uint256"
				},
				{
					"indexed": true,
					"internalType": "address",
					"name": "creator",
					"type": "address"
				},
				{
					"indexed": false,
					"internalType": "uint256",
					"name": "totalAmount",
					"type": "uint256"
				},
				{
					"indexed": false,
					"internalType": "uint256",
					"name": "totalCount",
					"type": "uint256"
				},
				{
					"indexed": false,
					"internalType": "bool",
					"name": "isRandom",
					"type": "bool"
				},
				{
					"indexed": false,
					"internalType": "string",
					"name": "message",
					"type": "string"
				}
			],
			"name": "EnvelopeCreated",
			"type": "event"
		},
		{
			"anonymous": false,
			"inputs": [
				{
					"indexed": true,
					"internalType": "uint256",
					"name": "envelopeId",
					"type": "uint256"
				},
				{
					"indexed": true,
					"internalType": "address",
					"name": "creator",
					"type": "address"
				},
				{
					"indexed": false,
					"internalType": "uint256",
					"name": "refundAmount",
					"type": "uint256"
				}
			],
			"name": "EnvelopeRefunded",
			"type": "event"
		},
		{
			"inputs": [
				{
					"internalType": "uint256",
					"name": "_envelopeId",
					"type": "uint256"
				}
			],
			"name": "claimEnvelope",
			"outputs": [],
			"stateMutability": "nonpayable",
			"type": "function"
		},
		{
			"inputs": [
				{
					"internalType": "uint256",
					"name": "_count",
					"type": "uint256"
				},
				{
					"internalType": "bool",
					"name": "_isRandom",
					"type": "bool"
				},
				{
					"internalType": "string",
					"name": "_message",
					"type": "string"
				}
			],
			"name": "createEnvelope",
			"outputs": [
				{
					"internalType": "uint256",
					"name": "",
					"type": "uint256"
				}
			],
			"stateMutability": "payable",
			"type": "function"
		},
		{
			"inputs": [
				{
					"internalType": "uint256",
					"name": "",
					"type": "uint256"
				}
			],
			"name": "envelopes",
			"outputs": [
				{
					"internalType": "address",
					"name": "creator",
					"type": "address"
				},
				{
					"internalType": "uint256",
					"name": "totalAmount",
					"type": "uint256"
				},
				{
					"internalType": "uint256",
					"name": "remainingAmount",
					"type": "uint256"
				},
				{
					"internalType": "uint256",
					"name": "totalCount",
					"type": "uint256"
				},
				{
					"internalType": "uint256",
					"name": "remainingCount",
					"type": "uint256"
				},
				{
					"internalType": "bool",
					"name": "isRandom",
					"type": "bool"
				},
				{
					"internalType": "bool",
					"name": "isActive",
					"type": "bool"
				},
				{
					"internalType": "string",
					"name": "message",
					"type": "string"
				},
				{
					"internalType": "uint256",
					"name": "createdAt",
					"type": "uint256"
				}
			],
			"stateMutability": "view",
			"type": "function"
		},
		{
			"inputs": [
				{
					"internalType": "uint256",
					"name": "_envelopeId",
					"type": "uint256"
				},
				{
					"internalType": "address",
					"name": "_user",
					"type": "address"
				}
			],
			"name": "getClaimAmount",
			"outputs": [
				{
					"internalType": "uint256",
					"name": "",
					"type": "uint256"
				}
			],
			"stateMutability": "view",
			"type": "function"
		},
		{
			"inputs": [
				{
					"internalType": "uint256",
					"name": "_envelopeId",
					"type": "uint256"
				}
			],
			"name": "getClaimers",
			"outputs": [
				{
					"internalType": "address[]",
					"name": "",
					"type": "address[]"
				}
			],
			"stateMutability": "view",
			"type": "function"
		},
		{
			"inputs": [
				{
					"internalType": "uint256",
					"name": "_envelopeId",
					"type": "uint256"
				}
			],
			"name": "getEnvelopeInfo",
			"outputs": [
				{
					"internalType": "address",
					"name": "creator",
					"type": "address"
				},
				{
					"internalType": "uint256",
					"name": "totalAmount",
					"type": "uint256"
				},
				{
					"internalType": "uint256",
					"name": "remainingAmount",
					"type": "uint256"
				},
				{
					"internalType": "uint256",
					"name": "totalCount",
					"type": "uint256"
				},
				{
					"internalType": "uint256",
					"name": "remainingCount",
					"type": "uint256"
				},
				{
					"internalType": "bool",
					"name": "isRandom",
					"type": "bool"
				},
				{
					"internalType": "bool",
					"name": "isActive",
					"type": "bool"
				},
				{
					"internalType": "string",
					"name": "message",
					"type": "string"
				},
				{
					"internalType": "uint256",
					"name": "createdAt",
					"type": "uint256"
				}
			],
			"stateMutability": "view",
			"type": "function"
		},
		{
			"inputs": [],
			"name": "getTotalEnvelopes",
			"outputs": [
				{
					"internalType": "uint256",
					"name": "",
					"type": "uint256"
				}
			],
			"stateMutability": "view",
			"type": "function"
		},
		{
			"inputs": [
				{
					"internalType": "uint256",
					"name": "_envelopeId",
					"type": "uint256"
				},
				{
					"internalType": "address",
					"name": "_user",
					"type": "address"
				}
			],
			"name": "hasClaimed",
			"outputs": [
				{
					"internalType": "bool",
					"name": "",
					"type": "bool"
				}
			],
			"stateMutability": "view",
			"type": "function"
		},
		{
			"inputs": [],
			"name": "nextEnvelopeId",
			"outputs": [
				{
					"internalType": "uint256",
					"name": "",
					"type": "uint256"
				}
			],
			"stateMutability": "view",
			"type": "function"
		},
		{
			"inputs": [
				{
					"internalType": "uint256",
					"name": "_envelopeId",
					"type": "uint256"
				}
			],
			"name": "refundEnvelope",
			"outputs": [],
			"stateMutability": "nonpayable",
			"type": "function"
		}
	],
	"bytecode": "0x6080604052348015600e575f5ffd5b5061113a8061001c5f395ff3fe60806040526004361061008f575f3560e01c8063959bfb8411610057578063959bfb841461015d5780639f37c8d6146101a0578063a3306819146101b3578063b0daacc8146101d2578063f634ec85146101e7575f5ffd5b80630ac9b108146100935780631df95786146100b45780633acb5f83146100f157806363bc90f11461010f578063873f6f9e1461012e575b5f5ffd5b34801561009e575f5ffd5b506100b26100ad366004610cce565b610213565b005b3480156100bf575f5ffd5b506100d36100ce366004610cce565b6103a5565b6040516100e899989796959493929190610d13565b60405180910390f35b3480156100fc575f5ffd5b506001545b6040519081526020016100e8565b34801561011a575f5ffd5b506100b2610129366004610cce565b610488565b348015610139575f5ffd5b5061014d610148366004610d74565b61083b565b60405190151581526020016100e8565b348015610168575f5ffd5b50610101610177366004610d74565b5f828152602081815260408083206001600160a01b038516845260090190915290205492915050565b6101016101ae366004610dc1565b610868565b3480156101be575f5ffd5b506100d36101cd366004610cce565b610a68565b3480156101dd575f5ffd5b5061010160015481565b3480156101f2575f5ffd5b50610206610201366004610cce565b610b79565b6040516100e89190610e93565b5f81815260208190526040902080546001600160a01b0316331461027e5760405162461bcd60e51b815260206004820152601760248201527f4f6e6c792063726561746f722063616e20726566756e6400000000000000000060448201526064015b60405180910390fd5b6005810154610100900460ff166102d05760405162461bcd60e51b8152602060048201526016602482015275456e76656c6f7065206973206e6f742061637469766560501b6044820152606401610275565b5f8160020154116103235760405162461bcd60e51b815260206004820152601d60248201527f4e6f2072656d61696e696e6720616d6f756e7420746f20726566756e640000006044820152606401610275565b6002810180545f9182905560058301805461ff00191690556040519091339183156108fc0291849190818181858888f19350505050158015610367573d5f5f3e3d5ffd5b50604051818152339084907f4dcb6e6a38d712e4e01ab60d4819c3cd51347a99d3c36d78f6e25aa2918e4133906020015b60405180910390a3505050565b5f6020819052908152604090208054600182015460028301546003840154600485015460058601546006870180546001600160a01b0390971697959694959394929360ff80841694610100909404169290919061040190610ede565b80601f016020809104026020016040519081016040528092919081815260200182805461042d90610ede565b80156104785780601f1061044f57610100808354040283529160200191610478565b820191905f5260205f20905b81548152906001019060200180831161045b57829003601f168201915b5050505050908060070154905089565b5f8181526020819052604090206005810154610100900460ff166104e75760405162461bcd60e51b8152602060048201526016602482015275456e76656c6f7065206973206e6f742061637469766560501b6044820152606401610275565b5f8160040154116105335760405162461bcd60e51b8152602060048201526016602482015275139bc81b5bdc9948195b9d995b1bdc195cc81b19599d60521b6044820152606401610275565b335f90815260088201602052604090205460ff16156105865760405162461bcd60e51b815260206004820152600f60248201526e105b1c9958591e4818db185a5b5959608a1b6044820152606401610275565b80546001600160a01b031633036105e95760405162461bcd60e51b815260206004820152602160248201527f43726561746f722063616e6e6f7420636c61696d206f776e20656e76656c6f706044820152606560f81b6064820152608401610275565b5f81600401546001036106015750600281015461063f565b600582015460ff1615610628576106218260020154836004015485610be3565b905061063f565b8160040154826002015461063c9190610f3e565b90505b5f81116106825760405162461bcd60e51b81526020600482015260116024820152700436c61696d20616d6f756e74206973203607c1b6044820152606401610275565b81600201548111156106d65760405162461bcd60e51b815260206004820152601d60248201527f496e73756666696369656e742072656d61696e696e6720616d6f756e740000006044820152606401610275565b335f8181526008840160209081526040808320805460ff19166001908117909155600987018352908320859055600a86018054918201815583529082200180546001600160a01b03191690921790915560028301805483929061073a908490610f51565b9091555050600482018054905f61075083610f64565b9091555050604051339082156108fc029083905f818181858888f1935050505015801561077f573d5f5f3e3d5ffd5b5060048201546002830154604080518481526020810193909352820152339084907f67598777a6024d8b2fafb35b55dca7fdad7bf1b1adcf059f2f634848ce83548c9060600160405180910390a381600401545f036108365760058201805461ff00191690558154600183015460038401546040516001600160a01b039093169286927fbfed8758610c2358b70f8e546e7712265157092896065c929c44ce20703d00ff9261039892918252602082015260400190565b505050565b5f828152602081815260408083206001600160a01b038516845260080190915290205460ff165b92915050565b5f5f34116108b85760405162461bcd60e51b815260206004820152601d60248201527f416d6f756e74206d7573742062652067726561746572207468616e20300000006044820152606401610275565b5f84116109075760405162461bcd60e51b815260206004820152601c60248201527f436f756e74206d7573742062652067726561746572207468616e2030000000006044820152606401610275565b60648411156109585760405162461bcd60e51b815260206004820152601760248201527f436f756e742063616e6e6f7420657863656564203130300000000000000000006044820152606401610275565b60c88251111561099d5760405162461bcd60e51b815260206004820152601060248201526f4d65737361676520746f6f206c6f6e6760801b6044820152606401610275565b600180545f91826109ad83610f79565b909155505f81815260208190526040902080546001600160a01b0319163317815534600182018190556002820155600381018790556004810187905560058101805461ff00198815151661ffff199091161761010017905590915060068101610a168582610fdc565b50426007820155604051339083907fca785e51ab3992d383c29f2af9ce8d250ab5df85161d373d339dce92799b372890610a579034908b908b908b90611097565b60405180910390a350949350505050565b5f81815260208190526040812080546001820154600283015460038401546004850154600586015460078701546006880180548a998a998a998a998a998a996060998b9996986001600160a01b0390961697949693959294919360ff8083169461010090930416928290610adb90610ede565b80601f0160208091040260200160405190810160405280929190818152602001828054610b0790610ede565b8015610b525780601f10610b2957610100808354040283529160200191610b52565b820191905f5260205f20905b815481529060010190602001808311610b3557829003601f168201915b50505050509150995099509950995099509950995099509950509193959799909294969850565b5f8181526020818152604091829020600a01805483518184028101840190945280845260609392830182828015610bd757602002820191905f5260205f20905b81546001600160a01b03168152600190910190602001808311610bb9575b50505050509050919050565b5f80610bf0600185610f51565b610bfa9086610f51565b60408051426020820152449181019190915233606090811b6bffffffffffffffffffffffff19169082015260748101859052609481018690529091505f9060b40160408051601f19818403018152919052805160209091012090505f610c608688610f3e565b90505f610c6e600a83610f3e565b9050805f03610c7b575060015b5f81610c888460026110c7565b610c929190610f51565b9050805f03610c9f575060015b5f610caa82866110de565b610cb490846110f1565b905085811115610cc15750845b9998505050505050505050565b5f60208284031215610cde575f5ffd5b5035919050565b5f81518084528060208401602086015e5f602082860101526020601f19601f83011685010191505092915050565b60018060a01b038a16815288602082015287604082015286606082015285608082015284151560a082015283151560c082015261012060e08201525f610d5d610120830185610ce5565b9050826101008301529a9950505050505050505050565b5f5f60408385031215610d85575f5ffd5b8235915060208301356001600160a01b0381168114610da2575f5ffd5b809150509250929050565b634e487b7160e01b5f52604160045260245ffd5b5f5f5f60608486031215610dd3575f5ffd5b8335925060208401358015158114610de9575f5ffd5b9150604084013567ffffffffffffffff811115610e04575f5ffd5b8401601f81018613610e14575f5ffd5b803567ffffffffffffffff811115610e2e57610e2e610dad565b604051601f8201601f19908116603f0116810167ffffffffffffffff81118282101715610e5d57610e5d610dad565b604052818152828201602001881015610e74575f5ffd5b816020840160208301375f602083830101528093505050509250925092565b602080825282518282018190525f918401906040840190835b81811015610ed35783516001600160a01b0316835260209384019390920191600101610eac565b509095945050505050565b600181811c90821680610ef257607f821691505b602082108103610f1057634e487b7160e01b5f52602260045260245ffd5b50919050565b634e487b7160e01b5f52601260045260245ffd5b634e487b7160e01b5f52601160045260245ffd5b5f82610f4c57610f4c610f16565b500490565b8181038181111561086257610862610f2a565b5f81610f7257610f72610f2a565b505f190190565b5f60018201610f8a57610f8a610f2a565b5060010190565b601f82111561083657805f5260205f20601f840160051c81016020851015610fb65750805b601f840160051c820191505b81811015610fd5575f8155600101610fc2565b5050505050565b815167ffffffffffffffff811115610ff657610ff6610dad565b61100a816110048454610ede565b84610f91565b6020601f82116001811461103c575f83156110255750848201515b5f19600385901b1c1916600184901b178455610fd5565b5f84815260208120601f198516915b8281101561106b578785015182556020948501946001909201910161104b565b508482101561108857868401515f19600387901b60f8161c191681555b50505050600190811b01905550565b8481528360208201528215156040820152608060608201525f6110bd6080830184610ce5565b9695505050505050565b808202811582820484141761086257610862610f2a565b5f826110ec576110ec610f16565b500690565b8082018082111561086257610862610f2a56fea26469706673582212204d00b3d78f74d8b4584f0f4d1b480d040352e5a0680d99bf6b71749db4ee842b64736f6c634300081c0033",
	"linkReferences": {},
	"deployedLinkReferences": {},
	"immutableReferences": {},
	"inputSourceName": "project/contracts/RedEnvelope.sol",
	"buildInfoId": "solc-0_8_28-8f26f6eab0b99ce1fb83d6559b86633f2021a293"
}